:020000040800F2
:20000000DFF820D072B608480021016000200749044A00F002F80648004741F8040B9142C7
:20002000FBD3704700800204000088A00070020435600004DFF80CD000F054FA00480047FE
:2000400069BA0004008002040CB542691144491CCDE90012914204D94169009A9142FBD370
:200060000CBD41699142FCD24169009A9142FBD30CBD70B52A4C0546207830B90C22002108
:20008000A06800F03EF8012020702946A068FFF7DBFF012070BD70B5214C0546607830B94E
:2000A00000221021606800F02CF801206070E8034FF47A71B0FBF1F16068FFF7C5FF0120D7
:2000C00070BD70B5164C0D46012618B101280BD0002070BD607828B900221021606800F014
:2000E00010F86670606808E0207828B90C220021A06800F006F82670A068406928600120C4
:2001000070BD084B10B5D3F80843640702D50424C3F82843114341603121016010BD00007F
:20012000B4ED0004000001A22C4A116810B1012802D0FEE7506800E0106CC00701D041F00A
:20014000100141F008001060704724480168244A1140016001688907FCD4016821F00801ED
:20016000016001680907FCD470471C49034600200A68012B42F00C0201D142F080520A6032
:200180000A689207FCD50A68D207FCD1704710B50446FFF7EAFF2046BDE81040D5E730B5CA
:2001A000002305461C4606E020460C46090A5B1C60F31F24DBB20029F6D1002B0CD02846BF
:2001C000FFF7B2FF0748046004480361002141612846BDE83040DAE730BD0000000004A07D
:2001E000EBFFFFEF000804A008B50020009069460120FFF766FF08B1009808BDFEE70000E8
:2002000010B500F091F847494A6822F01E024A604A6842F013024A604A6822F01E024A6051
:200220004A6842F003024A60BFF36F8F00F086F8002010BD10B50446C00602D06FF0060014
:2002400010BD00F071F80146364824F01F024260426842F005024260BFF36F8F084600F069
:200260006DF8002010BD70B5044645180843C00602D06FF0060070BD00F056F8064603E07E
:200280002046FFF7D7FF2034AC42F9D3BFF36F8F304600F053F8002070BD10B50446C0069B
:2002A00002D06FF0060010BD00F03EF801461D4824F01F024260426842F015024260BFF34A
:2002C0006F8F084600F03AF8002010BD70B5044645180843C00602D06FF0060070BD00F092
:2002E00023F8064603E02046FFF7D7FF2034AC42F9D3BFF36F8F304600F020F8002070BDF9
:2003000010B500F011F807494A6822F01E024A604A6842F013024A60BFF36F8F00F00EF8F8
:20032000002010BD000088A0EFF31180042181F31188BFF35F8FBFF36F8F7047C0B280F317
:200340001188BFF35F8FBFF36F8F704740EA01039B0703D009E008C9121F08C0042AFAD2AD
:2003600003E011F8013B00F8013B521EF9D27047D2B201E000F8012B491EFBD27047002299
:20038000F6E710B513460A4604461946FFF7F0FF204610BD3EB5CA17CB0F0024504051405E
:2003A000C0186141DA0740F233430094CDE901232246234600F048F803B030BD30B5041E24
:2003C00071F1000404DB4FF00044404264EB0101141E73F1000405DB1C464FF00043524290
:2003E00063EB0403994208BF904230BD202A04DB203A00FA02F1002070479140C2F1200359
:2004000020FA03F3194390407047202A04DB203A21FA02F00021704721FA02F3D040C2F1AE
:200420002002914008431946704710B5141E73F1000408DA401C41F1000192185B411A43F5
:2004400001D120F0010010BD2DE9F04D92469B4611B1B1FA81F202E0B0FA80F220329046DA
:20046000FFF7C4FF04460F4640EA0A0041EA0B0153465A46084313D0114653EA010019D0D4
:20048000C8F140025046FFF7C0FF05460E46504659464246FFF7AAFF084305D0012004E0F6
:2004A00020463946BDE8F08D0020054346EAE0762C4337430A986305E40AA0EB08000022B1
:2004C000FD0A44EA47540A3002D500200146E9E7010510196941DDE9084500196941BDE8B0
:2004E000F04DA2E7064C074D06E0E06840F0010394E8070098471034AC42F6D3FFF79EFD40
:20050000C8DA0004E8DA000440F00100004700000149C96800F002B868ED000410B520F0A4
:200520007842002009E000BF51F83040944202D89B68934206D8401C80B201EBC003DC6899
:20054000002CF1D101EBC000406810BDF0B50D4C002202EB820304EB430500216B7805E0DA
:200560006E18475CB678BE4202D1491C8B42F7DC8B4201D10120F0BD521C052AE9DB00205E
:20058000F0BD00009CD40004034900EB800001EB40001030704700008CD400042DE9FC41A9
:2005A000144CB4F90200002821DA6A464FF00061002007F099FA104D00216E4601EB81026E
:2005C00005EB420300205A7806E01F1836F810C0BF78674502D1401C8242F6DC824201D19B
:2005E000618002E0491C0529E8DBB4F90200BDE8FC81000064ED00049CD400042DE9F04101
:20060000002000F049F821484168026801EB011102EBC10540226988016105F10801C16087
:2006200040311B48FFF792FE1A4C184800261430C4F8AC00A4F1E000C4F8B00000F11C07D3
:20064000A4F8C660F8434FF00062C4E900022146A1F58E706B6801F071FE783014D00C483F
:2006600001F0BAFDA4F18405014628603A46002001F09EFDA4F58E706761C5E9010485F82A
:2006800080600020BDE8F081FEE7000068ED0004F8990104549B010410B5074C40B9FFF775
:2006A0007DFF6060002800DAFEE7FFF76DFFA0600248206010BD000068ED0004E0D400040D
:2006C0002DE9F047471800249A469046054626464FF0010919E051462846FFF71FFF66B16B
:2006E00058F83410814205D108EBC4014A68521C4A6008E0641C092C0CD008EBC40248F8D9
:200700003400C2F804900544761CBD42E3D30020BDE8F0870620FBE7FFF770BF2DE9FF4FFA
:2007200089B01D46169C581C00D001209246069180464FF480562268002731462046904753
:20074000079060B12268314620469047039030B1099801F0AAFA04F09BFD002803DA022056
:200760000DB0BDE8F08FB1464FF022408168A1F51450233807D1BAF1006F04DD4A46AAF1C4
:200780000060079902E04A465046079904F086FD08B10820E4E70AF5805A0026A9EB0600F5
:2007A000C7F58051CDE904100020B8F1000F03D0A94201D90120049505AA08A90092CDE910
:2007C0000101079804AA83190398C119099801F003F98346059803990644049807442D1AB1
:2007E0003A46069801F01AFF48B1626820460799904762682046039990470920B0E7069830
:20080000384400270690BBF1000F1FD1B8F1000F00D0DDB1DDE90410084306D005B31548CE
:2008200004F022FF4E45B9D19EE7B8F1000F03D19DF82000012809D0626820460799904717
:200840006268204603999047012089E76268204607999047626820460399904758467FE716
:2008600062682046079990476268204603999047002075E7FECAADDE1248002181601248A9
:200880000122C0F8482100BFD0F848219207FBD5C0F84811D0F848219207FBD44FF05A3246
:2008A0000A604A60D0F86011C907FBD00749C0F860110749C0F86011D0F86011C907FBD08A
:2008C00070470000000011A2000005A00000030F000043087FB505461E46684601F021FC0D
:2008E00000282CD132466946284600F035F8002825D1039840F6FF71B0F1804F01D3144921
:2009000003E0B0F5800F00D3124944188C43844200D20446686910B1A86AA04209D03146AF
:20092000284601F0AEF93268214630469047686138B1AC629DE80F0085E80F00002004B0BF
:2009400070BD3146284601F0A6F90220F7E70000FFFF3F00FFFF0F0070B505460878097939
:200960004FF44074084484402869164604F2367410B1686DA0420AD01146284601F08BF957
:2009800032686100304690476C65286108B1002070BD022070BD2DE9F74FD0E90D519AB0A3
:2009A000D0F810E01191C16B1791016C1691416C1991027A012101FA02F2521E1492027980
:2009C0009140491E139101681891D0F81480816A0D91D0E90BA1446A099100210791D0E925
:2009E00007318269149FB3F1807F0AEA07090EEB451707EB490CCDF804C0BCF8007004D25B
:200A000012F8016B1B0246EA0121DE0A7E43B1427DD2C7F5006307EB5313ACF80030099F13
:200A2000B1460EF66C665AEA070313D0D4B123464344139F13F801CC189BC3F108032CFA21
:200A400003FC0AEA0703189FBB40634403EB430306EB43260AF1010A072D7DD2042D03D223
:200A60002B4602E00D9BE3E70323ED1A7788B9F1807F05D212F8013B4FEA092943EA012105
:200A80004FEAD9237B43994207D29C46C7F5006307EB53137380022306E0A9EB030CC91AD2
:200AA000A7EB5713738003239946BCF1807F36F819B005D212F8013B4FEA0C2C43EA0121C2
:200AC0004FEADC2707FB0BF7B94209D23B46CBF5006C0BEB5C1726F819704FEA490709E0D1
:200AE000ACEB0703C91BABEB5B1726F819704FEA49077F1CBB46B3F1807F36F81BC004D21B
:200B000012F8017B1B0247EA0121DF0A00E0B9E207FB0CF7B94209D2B946CCF500630CEB86
:200B2000531726F81B704FEA4B0309E0A3EB0709C91BACEB5C174FEA4B0326F81B705B1CFF
:200B40009B46B9F1807F36F81B30109307D24FEA092912F8013B00E0ACE043EA0121109BFF
:200B60004FEAD9275F43B9420AD23B46109FC7F5006C07EB5C1726F81B704FEA4B070AE0E8
:200B8000A9EB0703C91B109FA7EB571726F81B704FEA4B077F1CB946B3F1807F36F819C0AC
:200BA00004D212F8017B1B0247EA0121DF0A07FB0CF7B94209D23B46CCF500670CEB571797
:200BC00026F819704FEA490708E0DB1BC91BACEB5C1726F819704FEA49077F1CB946B3F1AB
:200BE000807F36F819B004D212F8017B1B0247EA01214FEAD32C0CFB0BFC614509D26746BF
:200C0000CBF5006C0BEB5C1326F819304FEA49030AE0A3EB0C07A1EB0C01ABEB5B1C4FEAED
:200C2000490326F819C05B1C9B46B7F1807F36F81BC004D212F8013B3F0243EA0121FB0AB8
:200C400003FB0CF3994209D29946CCF500670CEB571326F81B304FEA4B0309E0A7EB030902
:200C6000C91AACEB5C174FEA4B0326F81B705B1C9B46B9F1807F36F81BC005D212F8013B30
:200C80004FEA092943EA01214FEAD92707FB0CF7B94207D23B46CCF500670CEB571726F85C
:200CA0001B70DEE1A9EB0703C91BACEB5C1726F81B70E0E1119BE71A9C4201D20D9B00E00E
:200CC00000233B444FF4807718F8033001970A2D01D2032700E006275B000B93ED1B03F424
:200CE000807306F500770A9307EB43039B1C1593B3F800B0B9F1807F05D212F8013B4FEA01
:200D0000092943EA01214FEAD92303FB0BF399420CD29C46CBF500670BEB5713159F3B8090
:200D2000022305930A9F019BBB430BE0159FA9EB030CC91AABEB5B133B80032305930A9B6C
:200D400003F4807399460B9B06EB49075B000B9303EA090307EB43070A93059BBCF1807FCC
:200D600007EB43031593B3F800B005D212F8013B4FEA0C2C43EA01214FEADC2303FB0BF327
:200D800099420DD29C46CBF500670BEB5713159F3B80059B5B0005930A9F29EA07030DE07B
:200DA000159FACEB030CC91AABEB5B133B80059B5B005B1C05930A9F09EA070399460B9B02
:200DC00006EB49075B000B9303EA090307EB43070A93059BBCF1807F07EB43031593B3F830
:200DE00000B005D212F8013B4FEA0C2C43EA01214FEADC2707FB0BF7B9420FD23B46159F15
:200E0000CBF5006C0BEB5C1CA7F800C0059F7F000597DDF828C029EA0C0710E0ACEB0703A6
:200E2000DDF854C0C91BABEB5B17ACF80070059F7F007F1C0597DDF828C009EA0C07B946AD
:200E40000B9F06EB490C7F000B9707EA09070CEB470C0A97059FB3F1807F0CEB470715975D
:200E6000B7F800B004D212F8017B1B0247EA0121DF0A07FB0BF7B9420DD2BC46159BCBF50E
:200E800000670BEB57171F80059B5B0005930A9F29EA07030DE0A3EB070CC91B159FABEBD3
:200EA0005B133B80059B5B005B1C05930A9F09EA070399460B9B06EB49075B000B9303EAAD
:200EC000090307EB43070A93059BBCF1807F07EB43031593B3F800B005D212F8013B4FEA50
:200EE0000C2C43EA01214FEADC2707FB0BF7B94210D23B46CBF5006C0BEB5C17DDF854C04F
:200F0000ACF80070059F7F000597DDF828C029EA0C0710E0ACEB0703DDF854C0C91BABEB27
:200F20005B17ACF80070059F7F007F1C0597DDF828C009EA0C07B9460B9F06EB490C7F00A0
:200F40000B9707EA09070CEB470C0A97059FB3F1807F0CEB47071597B7F800B004D212F88C
:200F6000017B1B0247EA0121DF0A07FB0BF7B9420DD2BC46CBF500670BEB5713159F3B80C6
:200F8000059B5B0005930A9F29EA07030DE0A3EB070CC91B159FABEB5B133B80059B5B0018
:200FA0005B1C05930A9F09EA070399460B9B06EB49075B000B9303EA090307EB43070A93EB
:200FC000059BBCF1807F07EB43031593B3F800B005D212F8013B4FEA0C2C43EA01214FEA74
:200FE000DC2303FB0BF399420DD29C46CBF500670BEB5713159F3B80059B0A9F4FEA430B94
:2010000029EA07030DE0ACEB030CC91A159BABEB5B171F80059B0A9F5B0003F1010B09EA4F
:2010200007030B9FBCF1807F03EA470706EB430303EB470303EB4B09B9F8007005D212F862
:20104000013B4FEA0C2C43EA01214FEADC267E43B14209D23346C7F5006607EB5616A9F830
:2010600000604FEA4B0609E0ACEB0603891BA7EB5716A9F800604FEA4B06761C08F80460D9
:20108000641CFEE3A3EB060B891BA7EB5713ACF800300EEB45060A96B6F8807106F5C07628
:2010A000BBF1807F05D212F8013B4FEA0B2B43EA01214FEADB237B43994209D29B46C7F562
:2010C000006307EB531333800EF264660C35B6E0ABEB030CC91AA7EB57133380099B53EAE9
:2010E0000A0338D00A9BBCF1807F03F5CC730093B3F800B005D212F8013B4FEA0C2C43EAAA
:2011000001214FEADC2606FB0BF6B1423ED2009BCBF500670BEB57171F80DDF804C0B6F168
:20112000807FBCF8E0710CF5F07C04D212F8013B360243EA0121F30A7B4399421ED2C7F559
:20114000006607EB5616ACF80060119EA71BB44205D20D9E04E01DB00120BDE8F08F0026C2
:201160003E440AF1010A18F8066008F80460641C072D01D20925D8E30B25D6E3A6EB030B15
:20118000C91AA7EB5713ACF8003051E0ACEB0607891B009EABEB5B134FF0807B3380DDF8BF
:2011A00028C05F45BCF8B0610CF5D87C04D212F8013B3F0243EA0121FB0A7343994208D26D
:2011C0009B46C6F5006306EB5313ACF80030179B2BE0FF1AC91AA6EB5613ACF80030DDF889
:2011E00028C05F45BCF8C8610CF5E47C04D212F8013B3F0243EA0121FB0A7343994208D209
:201200009B46C6F5006306EB5313ACF80030169B09E0A7EB030BC91AA6EB5613ACF80030B9
:20122000169E199B1996179E1696119E17961193072D01D2082500E00B250EF66826BBF1B4
:20124000807F3388109305D212F8013B4FEA0B2B43EA0121109B4FEADB275F43B94272D28F
:20126000C3F5006C03EB5C13338006EB091303F10409DE88B7F1807F04D212F8013B3F02C2
:2012800043EA01214FEAD72C0CFB06FC614508D2C6F5006706EB5716A9F8026063460226E6
:2012A00008E0A6EB5616A9F80260A7EB0C03A1EB0C010326B346B3F1807F39F81BC004D265
:2012C00012F8016B1B0246EA0121DF0A07FB0CF7B94209D23E46CCF500630CEB531729F83B
:2012E0001B704FEA4B0708E0DE1BC91BACEB5C1729F81B704FEA4B077F1CB6F1807F39F860
:2013000017B004D212F8013B360243EA01214FEAD62C0CFB0BFC614508D26346CBF5006CC5
:201320000BEB5C1629F817607E0009E0A6EB0C03ABEB5B1629F817607E00A1EB0C01761C5E
:20134000083EC0E0FFE7109BABEB070CA3EB53133380B31C0193C91BB6F802B0BCF1807F73
:2013600005D212F8013B4FEA0C2C43EA01214FEADC2707FB0BF7B94275D2CBF5006C0BEBEC
:201380005C13DDF804C0B7F1807FACF8003006EB091303F58279B3F8066104D212F8013B9C
:2013A0003F0243EA01214FEAD72C0CFB06FC614508D2C6F5006706EB5716A9F802606346AC
:2013C000022608E0A6EB5616A9F80260A7EB0C03A1EB0C010326B346B3F1807F39F81BC0F2
:2013E00004D212F8016B1B0246EA0121DF0A07FB0CF7B94209D2CCF500633E460CEB531369
:2014000029F81B304FEA4B0708E0DE1BC91BACEB5C1C4FEA4B0729F81BC07F1CB6F1807F39
:2014200039F817B004D212F8013B360243EA01214FEAD62C0CFB0BFC614508D26346CBF5DF
:20144000006C0BEB5C1629F817607E003BE0A6EB0C03ABEB5B1629F817607E00A1EB0C0131
:20146000761C30E0FFE7ACEB0703C91BDDF804C0ABEB5B1706F50179ACF8007001264FF0CF
:20148000807B39F816C05B4504D212F8017B1B0247EA0121DF0A07FB0CF7B94208D23B469A
:2014A000CCF500670CEB571C29F816C0760007E0DB1BC91BACEB5C1729F816707600761CB3
:2014C000FF2EDED9F03E07960C2D7DD3042E00D303260EEBC6164FF0807BB6F862C306F5C9
:2014E00058795B4504D212F8016B1B0246EA0121DF0A07FB0CF7B94208D23E46CCF5006355
:201500000CEB5317A9F80270022706E0DE1BC91BACEB5C13A9F8023003275E4539F817C0BD
:2015200004D212F8013B360243EA0121F30A03FB0CF3994208D21E46CCF500630CEB531374
:2015400029F817307F0007E0F61AC91AACEB5C1329F817307F007F1CB6F1807F39F817C094
:2015600004D212F8013B360243EA0121F30A03FB0CF3994208D21E46CCF500630CEB531334
:2015800029F817307B0007E0F61AC91AACEB5C1329F817307B005B1C9B46B6F1807F39F876
:2015A0001BC004D212F8013B360243EA0121F70A07FB0CF7B9420BD2CCF500660CEB561645
:2015C0003B4629F81B6000E077E14FEA4B0608E0F31BACEB5C1629F81B60C91B4FEA4B0623
:2015E000761CB346B3F1807F39F81BC004D212F8016B1B0246EA0121DF0A07FB0CF7B9420D
:2016000009D2CCF500633E460CEB531329F81B304FEA4B0708E0DE1BC91BACEB5C1729F803
:201620001B704FEA4B077F1CB6F1807F39F817B004D212F8013B360243EA01214FEAD62C7D
:201640000CFB0BFC614508D26346CBF5006C0BEB5C1C29F817C07E0009E0A6EB0C03ABEB24
:201660005B1629F817607E00A1EB0C01761C403EB346042E45D3B4464FF0FF3606EB5C0636
:201680000A960BF00106B61CBCF10E0F3AD20A9F4FF0010906FA07FB0EEB4B07A7EB4C06DD
:2016A00006F25E5600964E46009FB3F1807F37F816C004D212F8017B1B0247EA0121DF0A58
:2016C00007FB0CF7B9420AD23B46CCF500670CEB5717DDF800C02CF8167076000BE0DB1B8A
:2016E000C91BACEB5C17DDF800C04BEA090B2CF816707600761C0A9F4FEA49097F1E0A97FA
:20170000D2D1BCE0DDF828C04FF08079ACF1040C4B4504D212F8017B1B0247EA01215B0829
:20172000C91ACF1707EB46061F40761C3944BCF1010CEDD14FEA061BBEF846660EF2446C50
:20174000B3F1807F04D212F8017B1B0247EA0121DF0A7743B94209D2C6F5006306EB53132C
:20176000ACF802300223B94601930AE0A3EB0709A6EB5613C91BACF8023003234BF0010B32
:201780000193019EB9F1807F3CF8166005D212F8013B4FEA092943EA01214FEAD923734301
:2017A00099420AD29946019FC6F5006306EB53132CF81730019B5B000CE0019FA9EB0309F0
:2017C000C91AA6EB56132CF81730019B4BF0020B5B005B1CB9F1807F3CF81360109605D23E
:2017E00012F8016B4FEA092946EA0121109F4FEAD9267E43B1420AD2B1463E46C7F50067A1
:2018000006EB57162CF813605B0001930CE0A9EB0609891B109E4BF0040BA6EB56162CF898
:2018200013605B005B1C0193019EB9F1807F3CF8167005D212F8013B4FEA092943EA0121F6
:201840004FEAD9267E43B1420AD23346C7F5006607EB56166746DDF804C027F81C600BE0FB
:20186000A9EB0603891BA7EB57166746DDF804C04BF0080B27F81C60BBF1FF3F13D0169E78
:2018800000E052E01996179E1696119E17960BF101061196099E66B1099FBB451ED2132D8A
:2018A0000AD2072509E0079E0C3D06F58976079642E0D34512D2F2E70A25079E06F10209E5
:2018C0001B9EB6EB040C09D04E46CC4500D3B446119EA71BB44203D20D9E02E044623AE4C6
:2018E00000263E44A9EB0C0707970D9FE244BF1B67450DD308EB0407A6EB040B07EB0C091E
:20190000644417F80B6007F8016B4F45F9D10CE018F8067008F804700D9F641C761CBE4238
:2019200000D10026BCF1010CF2D11B9EB44203D21C9EB242FFF456A8B3F1807F04D212F88D
:20194000016B1B0246EA01218261C0E907310799C0F82CA044628164119981631799C163D7
:20196000169901641999456341641DB00020BDE8F08F2DE9F04117460D4604464FF48976C0
:20198000206B294638B9E26AE068801A626AAB1A834200D911183A462046FEF7FCFF0028D8
:2019A00018D1206B20B9E16AE068814200D320632946204600F086FB606AA84205D2A06954
:2019C000B84202D2A06CB042DAD3A06CB04200D9A6640020BDE8F0812DE9FF4F83B0044696
:2019E000DDF840A016680020DAF8008010609B469146CAF8000000BFCDF80880D4E9090185
:201A0000884201D1002060620746C81BB04201D2002001E01198B919129A02ABCDE90002C6
:201A20005A46204600F026F800900298DAF8001083440144A8EB0008CAF80010606AC51B63
:201A400060692A46C1190498FEF780FC0498761B28440490D9F800004119C9F800100098A5
:201A6000002803D10DB1002EC6D1002007B0BDE8F08F00002DE9FF4F83B04FF00008119F5E
:201A80001D68C3F800801E4692460446049900F019FB87F8008004F15C004FF0020B019032
:201AA000D6E0E06C50B925E001991AF8013B421CA26543543068401C6D1E3060A06D15B150
:201AC0000528F1D303E0052801D2032024E094F85C0000281ED1D4F85D0094F8601000BA2D
:201AE00020F0FF00084320624FF0FF30E0610020E064A06500200090616A0498814215D330
:201B0000A06C08B9216A31B1109939B160B100BF87F800B0A8E00420387001E087F800B095
:201B2000002007B0BDE8F08F01200090206DD0B1207821794FF4806308444FF44071814092
:201B4000002001F23671226903E000BF22F81030401C8842FAD3012060642064E063A063A2
:201B6000002060632065A06D18B180464FF0000936E0142D01D30098A0B12A465146204698
:201B800000F0A8F828B1009909B10228C0D152460BE02A4651460198FEF7D8FBA565306841
:201BA00028443FE00AEB0502143AC4F818A020460499FFF7DEFE88BBA169A1EB0A0031688B
:201BC000824401442D1A316042E000BF1AF8091004EB080009F1010980F85C1008F1010835
:201BE000B8F1140F01D2A945F0D3C4F85880B8F1140F01D3009848B142462046019900F058
:201C000069F860B1009909B1022881D1019AA26120460499FFF7ADFE00B905E024E0316806
:201C200001EB0900306050E7A069001B5C38804503D3A8EB0000814501D20B2071E7A9EB52
:201C400000003168824401442D1A00203160A065A06CB0F5897F7FF424AF206A20B9012060
:201C60003870206A0028E9D001205AE770B50C46054600F010F821462846BDE87040AFF369
:201C8000008010B50A46044641695368104698470020606110BD10B50A4604460169536899
:201CA000104698470020206110BD0021012241621146AFF3008010B501240023C0E9123425
:201CC000836511B1C36204650363002A00D0046510BD00002DE9F04F8B1890F80880C66AFE
:201CE0004FF0010A0AFA08F5B1466D1ED0F834C002692E4002EB4C15D0E9077405EB460EBC
:201D00004FF0807BBEF800805F4506D2994277D211F8015B3F0245EA0424FD0A05FB08F5B2
:201D2000AC427CD2066B02F66C6216B95FEA09061BD090F804800AFA08F6761E09EA06077C
:201D40000668D0F81480B146B740466A06B9866A761E18F80680C9F1080628FA06F807EB68
:201D6000080606EB460602EB4622BCF1070F1BD201205F4632F810C0BD4206D29942C6D209
:201D800011F8016B2D0246EA0424EE0A06FB0CF6B44202D23546400003E0AD1BA41B40001D
:201DA000401CFF28E6D937E0876B466AA6EB070CBE4201D2866A00E0002640696644875D84
:201DC0004FF4807001267F0007EA000902EB400808EB490C5D453CF8168006D2994296D22C
:201DE00011F801CB2D024CEA04244FEAD52C0CFB08FC644506D26546760020EA090009E09E
:201E0000D4E00CE07600A5EB0C05A4EB0C0400EA0900761CFF2ED6D94FF0010A4AE17F1BFC
:201E2000641B02EB4C004FF4C075DC462D5A674506D29942A3D211F8018B3F0248EA0424C5
:201E40004FEAD72808FB05F8444506D24FF0000E02F264604FF0020A61E0A7EB0807A4EB28
:201E60000805B0F898814FF0030A674506D2994285D211F8014B3F0244EA0525FC0A04FB9F
:201E800008F4A5421BD24FF4F070644530F80E7006D29942A3D211F8010B240240EA0525C9
:201EA000E00A7843854206D2584501D299427DD20320BDE8F08FA4EB00082C1A2BE03F1BBB
:201EC0002C1B4FF4D87567452D5A06D299426DD211F8018B3F0248EA04244FEAD72808FB9B
:201EE00005F8444517D3A7EB0805B0F8C801A4EB0804654506D2994258D211F8017B2D028C
:201F000047EA0424EF0A4743BC4201D2B84602E0A5EB0708E41B4FF00C0E02F66820D845A0
:201F2000078807D2994241D211F8015B4FEA082845EA04244FEAD8257D43AC4207D200EB7E
:201F400006164FF000094FF0080C361D24E0A8EB050C641B4588DC4507D2994226D211F8AD
:201F6000017B4FEA0C2C47EA04244FEADC276F43BC4208D200EB06164FF008093D46CC4669
:201F800006F5827608E0ACEB0705E41B00F501764FF010094FF4807C5FF001005D4536F8A1
:201FA000108008D2994201D22D0200E086E011F8017B47EA0424EF0A07FB08F7BC4202D2EA
:201FC0003D46400003E0ED1BE41B4000401C6045E4D3A0EB0C004844BEF1040F6AD204280F
:201FE00000D3032002EBC01C01205F460CF5587CBD423CF8108006D299425FD211F8016B6B
:202000002D0246EA0424EE0A06FB08F6B44202D23546400003E0AD1BA41B4000401C40284F
:20202000E6D34038042845D34FF0FF3C0CEB50060E280CD200F0010C0CF1020C0CFA06FC40
:2020400002EB4C02A2EB400202F25E5214E0361FBD4206D2994231D211F8010B2D0240EA66
:2020600004246D08601B0CEBD0702840241A761EEED1042602F244625FF00100BD4232F8DB
:20208000108006D2994219D211F801CB2D024CEA04244FEAD52C0CFB08FC644502D2654643
:2020A000400005E04000A5EB0C05A4EB0C04401C761EE3D15D4503D2994201D30020F8E6B3
:2020C0005046F6E6F0B5846C002C29D0B4F5897F26D2D0E909372246C91A4669856B914275
:2020E00000D20A46016B39B9D0F82CC0C168A1EB0C0C944500D80163C16A1144C162A11A6C
:2021000081640AE0591B521EAB4201D23C4600E000242144715CF1545B1C002AF2D1436246
:20212000F0BD052A0DD30B79D1F8012063F31F624FF480539A4200D21A46C2600978E129CD
:2021400001D3042070470922B1FBF2F302FB1313B1FBF2F105220360B1FBF2F38360B1FBB8
:20216000F2F302FB131141600020704710B5044690F8800008B1002010BDD4E901100A68E4
:2021800004F10C019047012184F8801010BD000001460248806805F07EBE0000D09A010452
:2021A00001460248806805F066BE0000D09A010470B50D460646144640211046FEF7DFF87D
:2021C000044822462946C3683046BDE87040FEF777BA000068ED0004024610B500200146F3
:2021E00006E000BF02EBC104491C646804FB030052F83130002BF5D110BD000010B5074CD4
:2022000094F90000401D06D1FEF786FA0448FFF7ADFF00202070002010BD0000C0ED00044C
:20222000D09A010410B511B1012904D0FEE7D0F8D410884708E090F8C110C22904D14069A0
:202240000068B0F5802F01D0002010BDC22010BD70B50C462C4901602C4941602C4981609C
:202260002C49C1602C4901612C4941612C4981612C49C1612C490025C0E908152B49816235
:202280002B49C162A4F8BC502A49C0E90C152A49816302F0F5FCB0F1807F01D9042000E00A
:2022A000032084F8C50054F8B00F45742168AF20887221689F2048722168022008702168F6
:2022C0002020887121685220C8712168D82008722168B020887021683020C8702168062085
:2022E00048702168B92088742168AB20C874216805200874258144F8A45C44F8A85C04F8F0
:20230000A05C2074002070BD21EC0004E5EB000467DE0004F5EA000483E9000405E900046D
:202320001FE20004DBE800048BE800044BE8000441E800043DE800042582000470B50500F8
:202340000C466FF0770031D0002C2FD0D4F8B01000292BD0D4F8AC10002927D06260A4F873
:20236000BA3021462846FFF773FFD4F8B010AF20887204F1C1010E46204606F084FC94F86E
:20238000C100FF2804D018B13046FEF7DFF838B9D4F8B0109F2088723146204606F073FCFE
:2023A00021462846BDE8704000F072B870BD0000F0B5D1F8AC0001250222057042700823F6
:2023C00083700423C3703C230371802343716023C371D1F8B0402B23E373D1F8B0406373E3
:2023E000D1F8B0602F24B473D1F8B0700526FE72D1F8B0603573D1F8B0506B74162381F82B
:20240000C03091F8C230202B19D191F8C36075237A25182E09D1D1F8B060B370D1F8B06044
:20242000F57091F8C260202E09D191F8C360162E05D1D1F8B060B370D1F8B030DD70104B51
:20244000C1F8D4304FF48063A1F8BC300023A1F8BE300C4BC1F8DC300B4BC1F8E0300B4BD9
:20246000C1F8D83051F8B03F1A750D68B123AB750D68C123EB7509680C7682710020F0BDFF
:2024800091E40004EDE3000415E30004E1E2000470B5064691F8C1000C46C22804D0EF284A
:2024A0000CD0F8281AD0FEE754F8C80F40F0040020603046BDE87040FFF77ABFD4F8C800EC
:2024C00040F00200C4F8C800304600F00DF805462146304600F030F8284370BD3046BDE8E8
:2024E000704000F001B8000010B551F8AC0F012302220370427080228270C2703C240471B2
:2025000042714A689F2090724A683520D0734A6850734A680520D072486803734A68752050
:2025200090704A687A20D0701620087501488862002010BD93E1000451F8AC0F4FF44072CB
:202540000A824FF480724A820A4A0A630A4A4A630A4ACA624B68FF229A754B683822DA756D
:202560004B6842221A75496848224A753C218171002070470FE700046DE500040BE5000471
:202580002DE9FC43234900224FF48043D1E90001CDE9000120481146C0F800234FF0FF39CF
:2025A00009EB13231446E84643EA024640F225350023002238F823703F0447EA043700BFF2
:2025C000C0F80013C0F8086347EA423CC0F800C3D0F800C34CEA050CC0F800C3D0F818C3F3
:2025E0005FEA8C7CFAD5D0F818C35FEACC7C04D0C0F800134846BDE8FC83521C012ADFD9E5
:202600005B1C012BD5D9641C012CD1D9C0F800130020F0E784D40004000005A02DE9F05FEA
:20262000044692465044401E060B250B28038B46A04200D06D1C4FF0224742F223584FF078
:20264000006913E0BA682803424505D1484503D90021A0F1006000E0002102F0D3FD00280E
:2026600003DA6FF00600BDE8F09F6D1CB542E9D9B968414506D14C4504DD52465946A4F1E6
:20268000006002E052465946204602F019FE002802DA4FF0FF30E6E70020E4E700B5FFF77D
:2026A0006FFF002801D04FF0FF3000BD074845F23141C0F8701145F20901C0F8781145F29E
:2026C0004601C0F88011002070470000000005A030B5144D1F240020C5F89000C5F8D0006B
:2026E000C5F8D800C5F8E000200640EA044040EA04202043C5F8D800C5F8D000FFF7CEFF7E
:2027000010B1641EF0D501E0002C0ADA01242004C5F8E000FFF7C2FF002802D0641C1F2C5E
:20272000F5DD30BD000005A001050948C0F86011D0F8601141F48031C0F86011D0F8601134
:20274000C907FBD0D0F86001C0F3072070470000000005A00E48A0F140010268CA60426819
:202760000A6182684A61C2688A610269CA6142690A6282694A62C2698A62026ACA62426AA5
:202780000A63826A4A63C26A8A63006BC86370472CED000402E008C8121F08C1002AFAD10F
:2027A00070477047002001E001C1121F002AFBD17047000010B50A4615A1002001F0D7FC5B
:2027C000194C1AA10020226801F0D1FC00F062F9206868B101280FD0022811D0032813D064
:2027E0007C231B4A1BA1002001F0C1FC002010BD012020601A4810BD02202060194810BDBE
:2028000003202060184810BD00202060174810BD5F626C5F616C6C6F632073697A65203D4D
:20282000202564200D0A0000D0EC00045F626C5F616C6C6F63206C7A6D615F616C6C6F6323
:202840005F636F756E74203D202564200D0A0000F0D20004653A2025732025640A0D0000D6
:2028600018F80004183801041878010418880104F0B5154B0F210020D3F82422D3F83472DE
:20288000C2F38026C2F3C015C2F3C004C2F380020DB9072108201EB901F00B0140F0040085
:2028A0001CB901F00D0140F002001AB901F00E0140F00100090341EA002007F00101084373
:2028C000C3F83402F0BD0000000001A22DE9FC411C4C40EA01201746208023881A4A1BA1E9
:2028E000002001F044FC251F4CF6FF7028800220FDF7BFFB48F6FF702880251D1FB1012092
:202900002880112000E000202880208820880004FCD4F020FDF7ADFB0A48083001881A2217
:2029200051430E0B07B1B60000882188CDE900102B88054A0CA1002001F019FC3046BDE895
:20294000FC810000040404A2D8D2000425733A2041424953545F46514D54525F434F4E31E0
:202960003D2578200A0D000025733A2041424953545F46514D54525F434F4E323D25782C81
:20298000434F4E313D25782C444154413D2578200A0D000000487047000001084FF4C010DA
:2029A0007047000000487047000026084FF000607047000002491120C1F86003704700008E
:2029C000000004A20B4810B550F8801F40F2AF1441F001010160016840F2FC72914341EAC1
:2029E00084010160026804A1002001F0C0FB0848446010BD000011A220424C5F4443584F67
:202A00005F4341505F4944203D202575200D0A00C8EC000470B50C48D0F8805004F098FAFA
:202A2000044603462A4609A1002001F0A0FB34B1114841682046BDE8704004F011BB0FA12B
:202A4000002001F094FBFEE7000011A220424C5F4443584F5F4341505F4944203D202575CD
:202A6000202C206566757365206361706964203D2575200D0A000000C8EC00044572726F33
:202A8000722121212043415049443D3D302121210D0A000010B504A1002001F068FBBDE839
:202AA0001040012002F0B6BC626C5F6578745F7764745F666565640A0D00000010B512A193
:202AC000002001F054FB0021012002F0BFFC0121084602F03DFC0121082002F039FC012179
:202AE000092002F035FC082002F010FC092002F00DFC0121082002F041FC0121BDE81040B0
:202B0000092002F03BBC0000626C5F6578745F7764745F696E69740A0D0000002DE9F04106
:202B20008046FFF73FFF284901EB4814A168E66847186569FFF736FF024624A1002001F015
:202B400016FB42462EA10020236901F010FB424639A10020A36801F00AFB424644A1002055
:202B6000E36801F004FB42464FA10020636901F0FEFA3A465AA1002001F0F9FA2A4660A1DD
:202B8000002001F0F4FA324665A1002001F0EFFAFFF70CFF3C1AFFF709FF301A684B224604
:202BA000294602F019FF02000CD066A1002001F0DEFAA2236B4A6CA1002001F0D8FA042040
:202BC000BDE8F0810020FBE7F0F70004702061646472202020202020202020202020202007
:202BE000202020202020202020202020202020202020202020203D202578200A0D000000E4
:202C0000666F74615F686561645F6275662E6D5F62696E5F696E666F5B25645D2E6D5F62A2
:202C2000696E5F6C656E67746820202020203D202578200A0D000000666F74615F686561D4
:202C4000645F6275662E6D5F62696E5F696E666F5B25645D2E6D5F62696E5F6F6666736550
:202C60007420202020203D202578200A0D000000666F74615F686561645F6275662E6D5FDE
:202C800062696E5F696E666F5B25645D2E6D5F62696E5F73746172745F61646472203D2078
:202CA0002578200A0D000000666F74615F686561645F6275662E6D5F62696E5F696E666FCB
:202CC0005B25645D2E6D5F706172746974696F6E5F6C656E20203D202578200A0D000000D0
:202CE0006C7A6D615F736F75726365202020202020202020202020203D202578200D0A005F
:202D00006C7A6D615F646573745F73697A65202020202020202020203D202578200D0A0065
:202D20006C7A6D615F646573745F61646472202020202020202020203D202578200D0A0065
:202D4000D8EC0004666F746120636F6D707265737320737461747573203D202564200D0A74
:202D600000000000F9D20004653A2025732025640A0D00002DE9FF5F4448D0E903410291DD
:202D80008568A0F500600190FFF710FEA4EB0008FFF70CFE02994FF400792144081AA0F1B6
:202DA000010A404602F0D3F90390404600F0C8F80090FFF7F7FD4419FFF7F8FDA4EB000B9F
:202DC0005FE0039902F01EFA04000BD040F293132F4A30A1002001F0CAF9224630A10020E0
:202DE00001F0C5F900980026B0FBF9F74946002C29D02AE00A465846019902F04FFA040046
:202E000009D04FF4D873224A22A1002001F0AFF922462CA110E0CB444A464046019902F08D
:202E20004FFA04000CD04FF4DD73194A19A1002001F09DF922462BA1002001F098F904E058
:202E40004946C844761CBE42D4D30098054484B140F2C7130E4A0FA1002001F088F9234679
:202E6000424629A1032001F082F9042004B0BDE8F09F642002996843B0FBF1F1032000F0FB
:202E800091FC4046D0459CD90020EFE7F0F7000460D30004653A2025732025640A0D000066
:202EA00068616C5F666C6173685F6572617365202C20737461747573203D202564200D0AB4
:202EC0000000000068616C5F666C6173685F72656164202C20737461747573203D2025643F
:202EE000200D0A0068616C5F666C6173685F7772697465202C20737461747573203D2025BD
:202F000064200D0A000000004572726F72207768656E2070726F63657373696E67206F73DB
:202F20002062696E20726177207365656B2025642C2073746174757325640A0D00000000CD
:202F400010B5FFF725F9411C09D0FFF729F90446024607A1002001F00AF9204610BDB123F5
:202F6000084A09A1002001F002F94FF4805010BD626C6F636B2073697A65203D2578200A5F
:202F80000D00000011D30004653A2025732025640A0D00002DE9F04FDFF89891A3B04F46E8
:202FA0000024D9F80880D9F81C60D9F81050FFF7F9FCB9694718FFF7F9FC381A2290A9F51D
:202FC000006A0DF1600B01A802F0C6FDFFF7EAFC00EB0807FFF7EAFC3F1A57A1002001F0AC
:202FE000C6F801A803F0DCFE4FF4007835E000BFD9F8100000902B463A4653A1002001F0A7
:20300000B6F8FFF747FD4046854211D302465146384602F043F9040004D14246514601A86B
:2030200003F0D4FEA5F5007507F50077ACB106E02A465146384602F031F9040007D04FF447
:203040000A73484A48A1002001F091F807E02A46514601A803F0BAFE01E0002DC8D145A10F
:20306000002001F084F81DA901A802F009FD14B14FF40E7327E043A1002001F078F8002542
:203080001DAC43A1625D002001F071F86D1C142DF7DB3BA1002001F06AF8142E324606D0CF
:2030A0003CA1002001F063F840F247230BE05946229802F0F3F802000ED03AA1002001F03E
:2030C00056F840F25D23274A27A1002001F04FF8052023B0BDE8F08F2AA1002001F047F828
:2030E000002518AE2AA1725D002001F040F86D1C142DF7DB22A1002001F039F80020315CB4
:20310000225C91420CD02FA1002001F030F84FF41B73144A14A1002001F029F80620D8E77E
:20312000401C1428EBDB2DA1002001F020F80020CFE70000F0F700047368613120737461A4
:203140007274200D0A0000007368613120757064617465202578202825642F256429200DA6
:203160000A00000072D30004653A2025732025640A0D0000736861312066696E69736820B7
:203180000D0A000064756D7020736967203D2000257820007369675F6C656E203D202564DE
:2031A0000D0A000068616C5F666C6173685F7265616420737461747573203D202564200D64
:2031C0000A000000696E7465677269747920636865636B206661696C0D0A0000696E746565
:2031E000677269747920636865636B20706173730D0A00001CB50821684600F0F1F920B141
:2032000040F26F33094A0AA108E00C490098B1EB002F08D0054A4FF45D7309A1002000F048
:20322000A6FF00201CBD01201CBD0000E4D30004653A2025732025640A0D0000004D4D4D3D
:20324000657869743A2025732025640A0000000010B590B001244021684600F0C1F938B143
:203260004FF450730E4A0FA1002000F080FF14E00F4900206A4600BF02EB80031B698B4215
:2032800000D00024401C0828F6D334B109A1002000F06DFF012010B010BD0020FBE700002A
:2032A000C6D30004653A2025732025640A0D000046554E54666F74612069732075706461AD
:2032C00074696E670A0D000070B52826FFF76AFB0446FFF76BFB251A284C29A1002000F024
:2032E00046FF32462146284601F0D8FF02000CD028A1002000F03BFF40F29E232D4A2EA14A
:20330000002000F034FF012070BD1C4C2DA10020226800F02CFF34A10020226900F027FF8B
:203320003EA10020A26800F022FF49A10020E26800F01DFF54A10020E26900F018FF5FA1AC
:203340000020A26900F013FF69A10020226A00F00EFF74492068B1EB002F0CD072A100206E
:2033600000F005FF40F2AF23124A13A1002000F0FEFE022070BD002070BD0000F0F70004B2
:2033800068616C5F666C6173685F72656164200A0D00000068616C5F666C6173685F726581
:2033A000616420737461747573203D2025640D0A000000008AD30004653A20257320256406
:2033C0000A0D0000666F74615F686561645F6275662E6D5F6D616769635F766572203D207B
:2033E0002578200A0D000000666F74615F686561645F6275662E6D5F62696E5F696E666F84
:203400005B305D2E6D5F62696E5F6C656E677468203D202578200A0D00000000666F7461B5
:203420005F686561645F6275662E6D5F62696E5F696E666F5B305D2E6D5F62696E5F6F6672
:2034400066736574203D202578200A0D00000000666F74615F686561645F6275662E6D5F38
:2034600062696E5F696E666F5B305D2E6D5F62696E5F73746172745F61646472203D2025C4
:2034800078200A0D00000000666F74615F686561645F6275662E6D5F62696E5F696E666F08
:2034A0005B305D2E6D5F7369675F6C656E677468203D202578200A0D00000000666F74610B
:2034C0005F686561645F6275662E6D5F62696E5F696E666F5B305D2E6D5F7369675F6F66C8
:2034E00066736574203D202578200A0D00000000666F74615F686561645F6275662E6D5F98
:2035000062696E5F696E666F5B305D2E6D5F69735F636F6D70726573736564203D202578FB
:20352000200A0D00004D4D4D424C5F464F54415F4845414445525F4745545F4D414749434F
:20354000206661696C0A0D00134810B50321416000210160FFF74EFE18B9FFF779FE002889
:2035600019D0FFF7ABFAFFF795FA0C4802F07CF80BA1002000F0FBFD00F084F8020004D092
:203580000DA1002000F0F3FDFEE7BDE810400EA1002000F0ECBD10BD000088A0FECAADDEF3
:2035A000737461727420666F746120757064617465200A0D00000000464F544120657272A6
:2035C0006F7225640A0D0000464F54412075706461746520737563636573730A0D0000006D
:2035E0002DE9F0410E460746FFF7DCF90446FFF7D5F90444A4F50074FFF7D8F9251A324637
:203600003946284601F04AFE04000ED040F22B33094A0AA1002000F0AAFD22460AA100202A
:2036200000F0A5FD0720BDE8F0812A460EA1002000F09DFD0020F6E7ADD30004653A20258D
:20364000732025640A0D000068616C5F666C6173685F72656164202C20737461747573206A
:203660003D202564200D0A00726561642075706461746520696E666F2066726F6D20257891
:20368000200D0A0070B5274900200860FFF7E0FD60B125A1002000F06AFD29A1002000F0DB
:2036A00066FDFFF711FE040005D00CE000F0B2F80400F2D007E00021022000F073F8FFF702
:2036C00069FC040002D000F063F910E00021032000F068F8244D286A012813D0FFF74AFB95
:2036E000040013D021A100202A6A00F040FD204600F04EF926A1002000F039FD01F0D4FFD2
:20370000204670BD0020FFF709FAE9E73221042000F048F8204600F03BF96421042000F063
:2037200041F8EBE7D0EC00047570646174696E67206D61726B657220657869737400000073
:20374000626C5F666F74615F6C6F61645F616E645F636865636B5F666F74615F68656164AA
:2037600065720A0D00000000F0F7000477726F6E672069735F636F6D707265737365642093
:2037800076616C7565203D2025780A0D00000000666F746120757064617465206661696CD2
:2037A000200D0A0070B586B00D4606461422154901A8FCF7CBFD0020024601A904E000BF2B
:2037C00051F82230521C1844B242F9D351F8221064226943B1FBF2F10C180B4801F044FFDD
:2037E000FFF758F909484168491C8C4200D344603346224606490020009500F0B8FC06B09F
:2038000070BD00004CD30004FECAADDED0EC0004ECD7000400B591B040216846FCF7AFFDDA
:20382000012000900020084A01906946CDF80C0001EB8003401C1A610828F9D34021684603
:2038400000F004F811B000BD46554E542DE9F0410F468046FFF7A6F80446FFF79FF80444AC
:20386000A4F50074FFF7A2F8241A204601F06FFC06004FF4805009D0012E02D0022E05D1B2
:2038800002E04FF4004001E04FF48030401E24EA000523462A4619A1002000F068FC314600
:2038A000284601F0AFFC02000DD01DA1002000F05EFC4FF48173224A22A1002000F057FC2E
:2038C0000820BDE8F0813A464146204601F0F8FC02000CD01EA1002000F049FC4FF484732C
:2038E000174A18A1002000F042FC0420E9E722461FA1002000F03BFC0020E2E76572617369
:203900006520616464723A2025782C206D61726B657220616464723A2025780D0A000000F9
:2039200068616C5F666C6173685F657261736520737461747573203D2025640D0A00000095
:203940002FD30004653A2025732025640A0D000068616C5F666C6173685F777269746520FE
:20396000737461747573203D2025640D0A00000077726974652075706461746520696E665B
:203980006F2061646472202578200D0A0000000010B590B0044640216846FCF7F0FC0021AB
:2039A0000A46684600EB8103491C1A610829F9D340210194FFF74AFF10B010BD01A1002039
:2039C00000F0D5BB5F626C5F6672656520200D0A000000001CB5464800F058FD4548016848
:2039E00041F47001016044A1002000F0C0FB002000F0F2FC48A1002000F0B9FBFEF7E2FF8F
:203A0000FFF708F848A1002000F0B1FB4B494020C1F824034AA1002000F0A9FB00F0DCFAD2
:203A20004BA1002000F0A3FB01F0A8F94DA1002000F09DFB00F002FE012200211320FEF768
:203A400045FF02464DA1002000F091FB012200210420FEF73BFF02464CA1002000F087FBF2
:203A6000002211460820FEF731FF02464BA1002000F07DFB4DA1002000F079FB01F004F964
:203A80004FA1002000F073FB04F037F951A1002000F06DFB01F0FCFB51A1002000F067FBDE
:203AA00001F0F6FB00208DF800001E200190684601F0E6FD020003D54EA1032000F057FB00
:203AC000524801F0B9FD52A1002000F050FB56490620086555A1002000F049FBFEF7C8FE20
:203AE0005AA1002000F043FBFEF764FF1CBD000080BA8C0188ED00E07365742043503130D0
:203B000020616E6420435031312046756C6C204163636573730D0A00626C5F756172745FB9
:203B2000696E69740A0D000069326320636C6F636B20656E61626C65200A0D00000001A22F
:203B4000626C5F706D69635F696E69740A0D0000637573746F6D5F736574454D49200A0D0D
:203B600000000000636C6B5F7365745F706C6C5F64636D5F696E6974200A0D00636D3420B8
:203B8000667265713D25640A0D00000075706C6C20667265713D25640A0D000062757320C8
:203BA000667265713D25640A0D000000637573746F6D5F736574416476454D49200A0D0007
:203BC000637573746F6D5F736574534649457874200A0D004E4F525F696E6974200A0D001C
:203BE00068616C5F666C6173685F696E6974200A0D00000068616C5F7764745F696E6974E3
:203C00002028256429200A0D00000000BEBAFECA67706461635F7372616D5F706F77657296
:203C20005F646F776E0A0D0000001BA2636F6E66696720626F6E64696E6720696F20726533
:203C40006769737465720A0D0000000044324420494F2070756C6C20646F776E0A0D000081
:203C600030B5164C0023237561B104F1140300BFB1FBF2F402FB1414B1FBF2F10A2C08D20F
:203C800030340CE00268302111700168491C016030BD102A05D10AA52C4414F80A4C03F8F0
:203CA000014D0029E4D105E0026811700168491C5B1C016019780029F6D130BDC4EF00043D
:203CC000616263646566000008B5002002460090FF230121282000F030F9022801D0012019
:203CE00008BD00F002F8002008BD1CB514210020CDE900013F230E220121282000F008FA65
:203D00001CBD1CB50121CDE9001003231422282000F0FEF91CBD1CB50121CDE900100323CE
:203D20001622282000F0F4F91CBD1CB50024FF23012202216B20009400F0FFF885284FF0FE
:203D400001000AD1CDE9004001234B2202216B2000F0DEF900F002F800201CBD30B591B082
:203D60001C22364902A8FCF7F1FA34491C221C3109A8FCF7EBFAFC200024CDE90040FF2315
:203D80003E2202216B2000F0C3F9DA20CDE90040FF233F2202216B2000F0BAF90120CDE9CE
:203DA00000400346402202216B2000F0B1F908980425C0B2CDE900500F234FF49F720221E6
:203DC0006B2000F0A5F90F980F23C0B2CDE9005040F2031202216B2000F09AF908980F232F
:203DE000C0B2CDE9005040F23F1202216B2000F08FF90F980F23C0B2CDE9005040F2051208
:203E000002216B2000F084F900940123402202216B20019400F07CF90094FF233E2202218C
:203E20006B20019400F074F90094FF233F2202216B20019400F06CF911B030BD4CD4000484
:203E40007CB506004FF0010500D00025FC200024CDE90040FF233E2202216B2000F058F94A
:203E6000DA20CDE90040FF233F2202216B2000F04FF9CDE900460123EC2202216B2000F01D
:203E800047F9062607E00123EC2202216B20009600F053F80546002DF5D00094FF233E22CB
:203EA00002216B20019400F033F90094FF233F2202216B20019400F02BF97CBD7CB50600C5
:203EC0004FF0010500D00025FC200024CDE90040FF233E2202216B2000F01AF9DA20CDE98F
:203EE0000040FF233F2202216B2000F011F9CDE900460123ED2202216B2000F009F906265C
:203F000007E00123ED2202216B20009600F015F80546002DF5D00094FF233E2202216B2045
:203F2000019400F0F5F80094FF233F2202216B20019400F0EDF87CBD70477CB51C46069DBA
:203F4000D3B2012902D0022903D009E08DF8003006E08DF80130402343EA12228DF800203F
:203F600001AB6A4600F005F89DF80400E84020407CBD10B586B000248DF800000120CDE923
:203F80000330CDE901216946002002F09DFF04F1010410F0FF0FE4B201D00A2CF3D9641EC6
:203FA00006B0E0B210BD2DE9F04117460D46064600246B1C3A463146002002F053FF04F1AE
:203FC000010410F0FF0FE4B201D00A2CF1D9641EE0B2BDE8F08100003EB50025642002900F
:203FE00002A90095284602F031FFFFF79EFE1A4C48B1FFF769FE78B118A1002000F0B7F802
:20400000204820603EBD20A1002000F0B0F826482060264860603EBD25A1002000F0A7F8B8
:204020002B4820602B4860602B48C068009068B12AA1002000F09BF8C320CDE90050FF239D
:204040001F220121282000F063F83EBD29A1002000F08DF83EBD0000E0EC00040A0D455297
:20406000524F52203A206E6F742046696E6420616E7920504D49432043484950204944201F
:204080000A0D0000399F00040A0D46696E64204D543633383520504D494320434849502051
:2040A0004944200A0D000000BD9E0004419E00040A0D46696E64204D415831343734352037
:2040C000504D49432043484950204944200A0D00179D0004039D0004000005A273797374B9
:2040E000656D20726573657420627920574454200A0D000073797374656D20726573657482
:20410000206E6F7420627920574454200A0D00002DE9FC418046DDE908671D460C46D0B268
:20412000012902D0022C1AD001E08DF8000001AB6A464046FFF71DFF9DF80400B540A84398
:204140008DF80400B74038430DF804006A4621464046FFF728FF40B10020BDE8FC818DF8E9
:204160000100402040EA1220DFE70120F5E70FB410B504AA039900F003F810BC5DF814FBD2
:204180002DE9FC5F92468F4E8F4A0027009637701278904273D30D464FF078094FF02D0B90
:2041A0004FF03008FAE0252804D0009901F8010B0091F2E015F8010F702874D008DC632824
:2041C00072D064280BD066286FD06F28F1D111E073286BD0752830D07828EAD11CE05AF803
:2041E000041B002904DA0098494200F801BB00900A220DE05AF8041B002904DA009849427E
:2042000000F801BB00900098082200F8018B00906846FFF725FDC0E05AF8041B002904DAA6
:204220000098494200F801BB00900098102200F8018B00F8019B0090EAE7009C5AF8040BD7
:20424000102204F8018B010C04F8019B80B2CDE900406846FFF704FD0098011B042913DA64
:204260000320C1F1030105E0421A224412F8012C2254401E8142F7DB0020424602E09FE015
:204280002254401C8142FBDA241D1022009468460199FFF7E5FC0098011B042916DA03209A
:2042A000C1F1030109E014E016E01CE06AE0421A224412F8012C2254401E8142F7DB0020AD
:2042C000424601E02254401C8142FBDA241D009463E05AF8041BA8E700981AF8041B00F832
:2042E000011B009059E00AF1070020F00700F0E802418246002907DA009800F801BB0090F7
:204300000020644260EB01012046FCF743F89FED2F1B53EC112BFCF751F805D80A222146F9
:204320006846FFF79DFC03E0009800F8018B009000982E214FF0000200F8011B0090211BA9
:2043400042F21070A1FB001022484FF00A04077500F1140091FBF4F304FB131391FBF4F1BC
:2043600003F1300302F1010200F8013D042AF1DB04E00099401C01F8012B00910278002ABD
:20438000F7D10AE05AF8040B04E00099401C01F8012B00910278002AF7D16D1C28780028BE
:2043A0007FF401AF009807703046009605E000BF00F0E8F80098401C009000780028F7D15F
:2043C000BDE8FC9FC4ED0004C4EC0004000000000000F03FD9EF00040149087070470000C0
:2043E000C4EC000438B50EA10020FFF7C0FE114C4025C4F8245310A1002004F54574FFF72B
:20440000B6FE642000906946002002F01FFD00F0CDF80CA10020FFF7AAFE256038BD00005D
:2044200069326320636C6F636B20656E61626C65200A0D00000001A269326320696E69741F
:20444000200A0D0069326320636C6F636B2064697361626C65200A0D0000000010B5FEF716
:2044600099FA0446024604A10020FFF780FE2046BDE81040FCF748B84A756D7020746F20D1
:20448000616464722025780A0D000000F0B595B00446282237496846FBF758FF35492822F0
:2044A00028310AA8FBF752FF3349FF2008603320091F08603148D0F8241341F40041C0F822
:2044C00024134FF0E172B4FBF2F104EB84004000B0FBF2F20A23B2FBF3F503FB152202B98D
:2044E00001B9491C4FF4E1324A43B4FBF2F24FF4807505E04FF4E132491C4A43B4FBF2F22F
:20450000AA42F7D84FF4E1344C43B0FBF4F0B0FBF3F403FB1406551E921E194853080327B7
:2045200007701748183802788DF850209DF8502042F080040470124C243C2170241D090A14
:20454000217002700E49091D0D70091D0B700C4A1DF82610303211700AA9121D11F8261018
:2045600011700770001F972101700020207015B0F0BD0000FCD30004080C02A2000001A2AB
:2045800024000DA008B508490A788DF800209DF80020ADF80020BDF800209206F4D502491A
:2045A0001439087008BD000014000DA0F8B5164CD4F80C01009015A1002004F58674FFF779
:2045C000D6FD1B4D288840F001002880194820600426C4F818624FF44057C4F81C7200F0C2
:2045E0005BFF00F09DFF288820F00100288000982060C4F80862C4F80C720F49002009680B
:2046000001B0BDE8F0400847000001A2626C5F7573625F6C6F775F706F7765725F736574C3
:2046200074696E672073746172740A0D00000000A00701A2FF0F0010E0EC00042DE9F04FD6
:2046400091B0F94800240390F8480B900C94F848079040F65C7000940D900F940020059044
:20466000F548DFF8D0B309946FF07F412646C0F88011F2480F210180F04A42F60100121FA3
:204680001080EE4A20321180111F0880EC4D01202884032005F58375FBF7EBFC4FF48040C0
:2046A000E88741F6010068871420FBF7E2FC002211460B20FEF70AF90246E2A10020FFF7E3
:2046C00056FDE74DE64F083D4CF6FF7848F6FF7905F1040A0FA90120FBF7F3FC00203880D4
:2046E0000B21AAF80010A5F80080A5F80090BAF80010BAF800100091084602E0BAF800009B
:2047000000900004FAD4D648001D0088D54900904843040B06B90C940798844202D30B98F0
:20472000844201D9192E6FD309A90120FBF7C9FC09990598234608440F990C9AA0EB010BED
:20474000C9A10020FFF713FD192E03D3D0A10020FFF70DFD012203210420FEF7B7F80246C4
:20476000D3A10020FFF703FD002211460B20FEF7ADF80246731CD7A10020CDF800B0FFF797
:20478000F6FC012200210C20FEF7A0F80246DEA10020FFF7ECFC0026E2480390E2480B90BD
:2047A0000C96E248079042F628404FF40A240F96B346A8460C2709960D900FA90120FBF7BF
:2047C00080FCA74801210180112101805046AAF800704CF6FF72A8F80020A8F80090BAF81B
:2047E0000010018800910904FBD49D48001D008800900620FBF73DFCCD4900984843050BFF
:20480000002E72D072E0FFE70B990398884208D90798844205D200994FEA4B00C1EB5000B1
:2048200012E003990798814208D20B98844205D900994FEA4B0001EB500005E00D990BFB7D
:2048400001F00099B0FBF1F08346484200EB80011BEB410011D00099009BB0FBF1F1039106
:20486000009901EB410149006422B1FBF2F1039A02FB1300B0FBF1F015E0009800EB8001E1
:20488000CBEB41000099B0FBF1F103910099039B01EB41014A006421B2FBF1F2009903FB0C
:2048A0001100B0FBF2F065490090091F088820F47C52039842EA00200880088820F0F00281
:2048C000009842EA001008800620FBF7D2FB09A90120FBF7F6FB09990598039401440F981F
:2048E000081A761C0590F5E6FFE70C950798854202D30B98854201D9192E7CD309A9012025
:20490000FBF7DFFB09992B460BEB01000F990C9A441A88A10020FFF72AFC192E03D38FA163
:204920000020FFF724FC012200210C20FDF7CEFF0246731C91A100200094FFF718FC3E4CBF
:204940006FF07F40C4F880013D4D002625F8486FAE8097480680012004F58074FBF789FB61
:20496000A5F8BC6041F20420288191480126C038068041F60100A5F8B8003220FBF779FBBB
:204980008C48D0F850118C4A1143C0F85011D0F854118A4A1143C0F85411606920F47C41CB
:2049A00040F2036001436161A16921F47C410143A161834DA5F85461E01720608148606018
:2049C000012005F5A875FBF754FB7F48E0607F48606040F67F6028800220FBF74AFB200595
:2049E000E060C4F800714FF44010C4F8100211B0BDE8F08FFFE70B990398884207D9079896
:204A0000854204D200996000C1EB5004EAE007990398884207D20B98854204D90099600018
:204A200001EB5004DEE0D3E0C045040000CF0300CCC6030099010300000001A2040904A262
:204A4000000004A24C464F53432066726571206265666F7265204B203D2025640A0D000050
:204A6000080404A2A0F703005B4C464F53435D204265666F7265204B203D2025642C20414A
:204A800066746572204B203D2025640A0D0000005B4C464F53435D2063616C69627261744C
:204AA000696F6E206661696C65640A0D0000000055504C4C2066726571206D65617375725C
:204AC0006564206279204C464F5343203D2025640A0D00004C464F53432066726571206198
:204AE00066746572204B3D2025642C204B2025642074696D65732C20746F74616C20256419
:204B00002075730A0D00000048464F53432066726571206265666F7265204B203D20256431
:204B20000A0D000020300500A0790400E0480400409601005B48464F53435D204265666F22
:204B40007265204B203D2025642C204166746572204B203D2025640A0D0000005B48464F0F
:204B600053435D2063616C6962726174696F6E206661696C65640A0D0000000048464F53CE
:204B8000432066726571206166746572204B3D2025642C204B2025642074696D65732C20B3
:204BA000746F74616C2025642075730A0D000000000704A200000AA20202C0010306C00121
:204BC00000001DA200008083FF0F00102B8084C36420B4FBF0F00D9948430099B0FBF1F496
:204BE00064204443484200EB800014EB400010D0B0FBF1F10391009901EB41014A006421DF
:204C0000B2FBF1F3009A039901FB1200B0FBF3F013E001EB8100C4EB4000B0FBF1F10391C1
:204C20000099009B01EB41014A006421B2FBF1F1039A02FB1300B0FBF1F000900F4801880B
:204C4000039A21F47C5141EA022101800188009A21F0F00141EA021101800620FBF709FA07
:204C600009A90120FBF72DFA0999761C0BEB01000F990395A0EB010B9FE50000200904A2F3
:204C80004FF480007047000010B52948294C816BC4F83011C16BC4F83811C16821670169BA
:204CA000C4F888104169C4F850118169C4F85811C169C4F8D010016AC4F8D810416AC4F88E
:204CC000E010816AC4F8F810C16AC4F80011016BC4F80811406BC4F81001BC34FDF7F8FCAC
:204CE000154844F82C0CBC3CD4F890000006FBD51248C4F8900000BFD4F890000006FBD423
:204D00000F48C4F89000FDF7D1FC00F0CFF802F095F830B10BA10020FFF729FA4FF0FF30C5
:204D200010BD0FA10020FFF722FA002010BD0000ECEC0004000005A000000F3000000F7098
:204D400000000F10505352414D204D656D6F7279205465737420506173732121000000005F
:204D6000505352414D204D656D6F72792054657374204661696C65642121000000B5FBF709
:204D80007BFDFDF7E7FC0020FDF7CEFC054A10600120FDF7C9FC50600220FDF7C5FC9060D6
:204DA000002000BDECEC0004FEB50C4D002400BF04EB840105EB810043685A1C0CD0083031
:204DC00045C88DE8450055F8212005490020FFF7CEF9641C142CEBDBFEBD0000189801045D
:204DE00038D8000470B50025FFF7DEFF02F020F90E4E002456F824303BB122460CA1002034
:204E0000FFF7B5F956F824000544641C142CF1DB2A460FA10020FFF7AAF92DB113A1BDE897
:204E200070400020FFF7A3B918A1F8E7A89901047061747465726E2025642C206661696CE3
:204E40006564206E756D6265722025640A0D0000746F74616C206661696C6564206E756D07
:204E60006265723A2025640A0D000000534C54204D656D2074657374207061747465726ECF
:204E8000206661696C6564210A0D0000534C54204D656D2074657374207061747465726E25
:204EA0002070617373210A0D0000000010B543A10020FFF75CF9464C226E46A10020BC34B6
:204EC000FFF755F954F84C2C46A10020FFF74FF954F8342C47A10020FFF749F954F82C2CF5
:204EE00048A10020FFF743F962694AA10020FFF73EF9E2694BA10020FFF739F9626A4DA13B
:204F00000020FFF734F9E26B4EA10020FFF72FF9626C50A10020FFF72AF9E26C51A100207C
:204F2000FFF725F9626D53A10020FFF720F9626F54A10020FFF71BF9E26F56A10020FFF71D
:204F400016F9D4F8942057A10020FFF710F9D4F89C2059A10020FFF70AF9D4F8A4205BA184
:204F60000020FFF704F90020FDF7DEFB02465CA10020FFF7FCF80120FDF7D6FB02465BA1B8
:204F80000020FFF7F4F80220FDF7CEFB02465AA10020FFF7ECF80420FDF7C6FB024659A1D8
:204FA0000020FFF7E4F80620FDF7BEFB0246BDE8104057A10020FFF7DAB8000044756D70B9
:204FC00020454D492053657474696E670A0D0000000005A0454D495F434F4E4D203D202513
:204FE000780A0D00454D495F47454E41203D2025780A0D00454D495F52444354203D202593
:20500000780A0D00454D495F444C4C56203D2025780A0D00454D495F49444C43203D20256C
:20502000780A0D00454D495F49444C44203D2025780A0D00454D495F49444C45203D20255F
:20504000780A0D00454D495F4F444C43203D2025780A0D00454D495F4F444C44203D202535
:20506000780A0D00454D495F4F444C45203D2025780A0D00454D495F4F444C46203D202511
:20508000780A0D00454D495F494F41203D2025780A0D0000454D495F494F42203D2025780F
:2050A0000A0D0000454D495F445352414D203D2025780A0D00000000454D495F4D5352418A
:2050C0004D203D2025750A0D00000000454D495F4D5245475F5257203D2025780A0D0000B7
:2050E0004D5230203D2025780A0D00004D5231203D2025780A0D00004D5232203D202578C4
:205100000A0D00004D5234203D2025780A0D00004D5236203D2025780A0D000070B50446FF
:2051200090F880000D4621F07F4610B92046FDF71DF8E068B04201D8022070BDD4E90110D6
:20514000CA68294690470028F7D0062070BD10B5FDF71EF8411C0BD0FDF722F8B0F5805FFC
:2051600007D0B0F5004F06D0B0F5803F05D0FEE7FEE7002010BD012010BD022010BD022897
:205180000ED003280FD0052810D06FF0060106280FD0821C0DD007280DD008280BD0FEE730
:2051A0006FF0020070476FF0030070476FF005007047084670476FF00100704770B50F4A09
:2051C0001168C90717D000210D4D0123D46A03FA01F634420BD005EB8104266826F480766A
:2051E000864204D8246C844201D9012070BD491CC9B21029EAD3002070BD0000000088A042
:20520000000089A02DE9F04104466FF0020721B1012908D002290CD020E04FF48056200553
:205220001CD1FA250BE04FF40046600416D1FB2505E020044FF48036000C0FD1FC2520460E
:20524000FCF7A6FF411C09D040EA05610F48FFF765FF30B1BDE8F041FFF791BF3846BDE81F
:20526000F08104F100642046FFF7A8FF60B1A01924F01F05203020F01F0403E02846FAF79A
:20528000D9FF2035AC42F9D20020E8E7D09A010410B5FCF7B3FF002010BD000010B5044664
:2052A00013460A460548214602F056FD002803D0BDE81040FFF763BF10BD0000D09A010408
:2052C00070B51646044613460A460F48214601F07DFF18B1BDE87040FFF751BF04F10064B2
:2052E0002046FFF76BFF60B1A01924F01F05203020F01F0403E02846FAF79CFF2035AC4243
:20530000F9D2002070BD0000D09A010410B50446312802D36FF0010010BD00F045FB68B153
:20532000610904F01F0201209040084A126802EB0111C1F80401C1F8040505E00023012287
:205340001946204600F032F8002010BDA0ED0004312802D36FF001007047012200F01F0376
:205360009A40054B40091B6803EB001011B14260002070478260FBE7A0ED0004312802D37B
:205380006FF001007047012200F01F039A40064B40091B6803EB001011B1C0F8042301E04A
:2053A000C0F8082300207047A0ED00042DE9F0411D4616460F460446312802D200F0F4FAF2
:2053C00018B16FF00100BDE8F0816109012004F01F0290400E4A136803EB011317B1C3F8C6
:2053E000040A01E0C3F8080A136803EB011316B1C3F8040B01E0C3F8080B126802EB0111BB
:2054000015B1C1F8240B01E0C1F8280B0020DAE7A0ED0004312802D36FF001007047410910
:2054200000F01F020848006800EB0111D1F80033012090400340D34002D0C1F8080301E0EC
:20544000C1F8040300207047A0ED000470B50C46312802D36FF0010070BD102C02D34FF0A2
:20546000FF3070BDC50800F00706FAF75DFF0949096801EB0512D2F8001CB3000F259D4049
:20548000A9439C400C43C2F8004CFAF757FF002070BD0000A0ED000420480068D0F800181A
:2054A00041F00041C0F80018D0F8681821F08061C0F86818D0F86C1821F48031C0F86C18EA
:2054C000D0F8201821F40071C0F82018D0F8201821F48071C0F82018D0F81C1821F08001D2
:2054E000C0F81C18D0F8201821F48031C0F82018D0F8201821F40031C0F82018D0F81818DC
:2055000041F00061C0F81818D0F8681821F48021C0F868180120FAF7BEBD0000E8EC000476
:2055200010B5444C2068D0F8681821F08061C0F86818D0F86C1821F48031C0F86C18D0F806
:20554000201821F40071C0F82018D0F8201821F48071C0F82018D0F8681841F00801C0F86D
:205560006818D0F8681841F48021C0F868180220FAF791FD2068D0F8681841F04001C0F8BA
:205580006818D0F8681841F08001C0F86818D0F8681821F0300141F01001C0F86818D0F88D
:2055A000681841F00401C0F86818D0F8681821F47051C0F86818D0F8681841F48011C0F8E1
:2055C0006818D0F8681841F40011C0F86818D0F8681841F40021C0F86818D0F8681841F432
:2055E0000031C0F86818D0F8681841F40001C0F86818D0F81C1841F08001C0F81C18D0F82A
:20560000181821F00061C0F818180120FAF743FD2068D0F8681821F00801C0F8681801206B
:20562000FAF739FD2068D0F8001821F00041C0F8001810BDE8EC0004094910B5884201D062
:20564000881710BD0121002001F0ACFD0121052001F0A8FD034941F671108860002010BD4C
:20566000BEBAFECA000005A2044910B541F6711088607B20FAF7FDFC002010BD000005A278
:2056800010B502006FF0010104D0107810B950681E2801D9084610BD01F072FD11780320BE
:2056A00001F080FD002010BD024941F20920C86100207047000005A22DE9F047624C54F8FA
:2056C0002050AA8054F8205001222A8754F820601F25B5810026202703254FF0240C4FF017
:2056E00076094FF0260A0F296AD2DFE801F00817253D51740817253D51748C8C9A00002929
:2057000054F8201007D0A1F8405000BF54F820100F8219881AE0A1F84060F7E7012954F819
:20572000201006D0A1F8405054F82010A1F810C0EFE7A1F84060F7E7022954F8201010D0E1
:20574000A1F8405054F820100F82998854F82030998254F820100A8354F82010A1F86C2091
:205760002EE0A1F84060EDE7032954F820100CD0A1F8405054F82010A1F810C054F8201000
:205780008A82998854F8203038E0A1F84060F1E77222042954F820101AD0A1F8405000BF08
:2057A00054F820100A8254F820201988918254F8202002211183998854F82020A2F86C109B
:2057C00054F82000018A41F008010182BDE8F087A1F84060E4E7052954F8201010D0A1F8D2
:2057E000405000BF54F82050A5F8109054F820501988A982998854F82030491C1983ABE789
:20580000A1F84060EEE754F82010A1F8405054F82050A5F810A054F820501989A982198AA0
:20582000B0E754F82010A1F8405054F82020A2F8109054F820201989918254F82020198AF6
:2058400011839989B8E700009CD700040D4A01466FF0030052F8212091898B0701D5401C13
:205860000CE04B0702D56FF0010007E0CB0602D54FF0FF3002E0012900D100201F21918167
:20588000704700009CD7000430B50023044C04E054F820502D88CD545B1C9342F8D330BD08
:2058A0009CD7000470B51F4B002253F82040A285062914D2DFE801F00307090B0E1153F899
:2058C000202001219185642109E0C82107E04FF4967104E04FF4C87101E04FF47A71124CFB
:2058E000012254F8205000BF01FB02F46400661E2E44B6FBF4F4402C02D9521C082AF3D972
:2059000053F82030198C4FF6C0000140521E4FF4E06000EA02200843641E04F03F010843B6
:20592000188470BD9CD70004A4ED000470B50023044C04E054F82060CD5C35805B1C934220
:20594000F8D370BD9CD7000410B50F4800240FA104602046FEF70BFC1149002041F820400F
:20596000401C1428FADB00210E4B481E01EB8102491C43F8220003EB82021429506090605A
:20598000D0601061F2DB10BD60ED0004496E6974206465627567206E6F64650A0D000000E3
:2059A000A89901041898010410B586B00446142208496846FAF7CAFC0021684650F8212063
:2059C000A24202D1012006B010BD491C0529F5D30020F8E788D700042DE9F0410746A2B0C9
:2059E000154688461E46000525D14FF022408068A0F51451233907D1B5F1006F04DD0D2243
:205A00001DA9A5F1006002E00D221DA92846FFF745FC18B1082022B0BDE8F08100242046EB
:205A20001DA90A18C30052799A40401C14440828F7DB444501D90220EDE7002006900590BC
:205A40003346052201A8FAF745FF234605F10D02394601A80096FAF761FE0446314601A8E2
:205A6000FCF704F92046D6E710B5FDF7B3FFFDF76BFDFEF7B7FCFEF7F1FC002010BD0000D5
:205A80007CB50D46044601686268480F40EAC200020E8DF80020020C8DF80120020A8DF8C8
:205AA0000220C9008DF80300080E8DF80400080C8DF80500080A8DF806008DF80710207865
:205AC00000F03F00382802D2C0F1380201E0C0F178022049204601F079F9082269462046FB
:205AE00001F074F9A068000E2870A068000C68702089000AA870207AE870E068000E287102
:205B0000E068000C6871A089000AA871207BE8712069000E28722069000C6872208A000AC4
:205B2000A872207CE8726069000E28736069000C6873A08A000AA873207DE873A069000ED5
:205B40002874A069000C6874208B000AA874207EE8747CBDACD700045C21FAF710BC0000F3
:205B60002DE9F04F0A689BB012BA22F0FF0CCA784CEA020CCDF864C04A6812BA22F0FF0626
:205B8000CA79164316968A6812BA22F0FF06CA7A16431596CA6812BA22F0FF0CCA7B4CEA0A
:205BA000020CCDF850C00A6912BA22F0FF06CA7C16430E964A6912BA22F0FF0CCA7D4CEA50
:205BC000020CCDF834C08A6912BA22F0FF06CA7E16430C96CA6912BA22F0FF05CA7F15432F
:205BE0000A950A6A12BA22F0FF0691F8232046EA020E4A6A12BA22F0FF0691F827201643E3
:205C000008968A6A12BA22F0FF0691F82B2016430796CA6A12BA22F0FF0791F82F201743FB
:205C20000A6B12BA22F0FF0591F8332091F8373045EA020A4A6B91F83B4012BA22F0FF026E
:205C40001A438B6BD0F808C01BBA23F0FF032343CC6B91F83F10CDF84CC0C66812960396C2
:205C60000569E346119524BAD0F814C024F0FF040C43CDF860C081690B91884685EA0C0152
:205C80003140E14681EA0C01DDF864C001EBFB660CEB08010E44FE4906EB0108039ECDF8B5
:205CA00000804FEAB60603966E4006EA0B066E4006EBF868169E4FEABB0B4E44464406EB68
:205CC0000108CDF80480039EDDF800808BEA060C0CEA080C8CEA060CDDF80480159E0CEB60
:205CE000F86C3544DDF8008065444FEAB809DDF8048089EA0B0605EB010C06EA080686EA87
:205D00000B0606EBFC65CDF808C0DDF850C0039E6644354405EB010CCDF80CC04FEAB80566
:205D2000DDF808C085EA090808EA0C08DDF80CC088EA09080E9E08EBFC685E44464406EBFC
:205D40000108DDF808C0CDF810804FEABC060296DDF80CC06E4006EA0C066E40DDF834C0ED
:205D600006EBF8680CEB090646440E440096DDF80CC0029E4FEABC0BDDF810808BEA060C2D
:205D80000CEA080C8CEA060C009E4FEAB8090CEBF66C0C9E89EA0B083544009E654405EBA0
:205DA000010C08EA0608029E0A9DCDF804C088EA0B08354408EBFC6C654405EB010C009E69
:205DC000CDF808C04FEAB605DDF804C085EA090606EA0C06DDF808C086EA090606EBFC68B8
:205DE0000EEB0B064644DDF804C006EB010B4FEABC060196DDF808C06E4006EA0C066E40EC
:205E000006EBFB6C089E4E44664406EB0108DDF808C0019E4FEABC0989EA060C0CEA0B0C82
:205E20008CEA060C079E4FEABB0B35440CEBF86C8BEA0906654406EA080605EB010C86EACA
:205E4000090606EBFC65019ECDF810803E4435446E184FEAB805049585EA0B0505EA0C055E
:205E6000019685EA0B0505EBF6660AEB09053544CDF800C06E18DDF800C00296049D4FEA32
:205E8000BC0C019E8CEA050808EA0608029E88EA050808EBF66502EB0B063544019E05EBA5
:205EA00001094FEAB60B029E8BEA0C05354085EA0C0505EBF966049D1D443544029E05EB69
:205EC00001084FEAB606029686EA0B0606EA090686EA0B0606EBF86504EB0C0635446E18DD
:205EE0000096DDF864C0159ECDF810804FEAB90982EA0E0586EA0C067540029EDDF8108055
:205F000089EA060C0CEA080C8CEA060C009E4FEAF5750CEBF66619952E4406EB0B056E182F
:205F20000196089E4FEAB80583EA0608DDF850C0169E8CEA060C88EA0C0B009E85EA0908EB
:205F400008EA0608019E88EA090808EBF66C4FEAFB76B4441696029EDDF85480664406EB98
:205F6000010B079EDDF838C066408CEA080C009986EA0C061A964FEAB101DDF804C081EAB9
:205F8000050606EA0C066E4006EBFB681A9E4FEAF67CCDF854C0C4443D4ECC44B444019E7C
:205FA000CDF80CC04FEAB6060196199EDDF834C0DDF850807E408CEA080C86EA0C09019E33
:205FC000DDF80CC04E4006EA0B064E4006EBFC684FEAF97C08EB0C062E442D4DCDF850C03A
:205FE00035440495DDF838C00C9E169D86EA0C0685EA0A0585EA06084FEABB09DDF80CC04A
:20600000019E8CEA090C049D8CEA060C0CEBF5664FEAF87B06EB0B050D441E49DDF80CC0D5
:206020006E184FEABC080096CDF80C80DDF854C00D9E0A9D8CEA020C75408CEA050C049D5A
:20604000009E85EA080585EA090505EBF6654FEAFC7635440D96019EDDF850C035440D4449
:206060000195049D0C9E4FEAB5088EEA0605009ECDF810808CEA030C86EA08068CEA050C49
:20608000DDF80C80019D86EA080606EBF56503E09979825AA1EBD96E4FEAFC7635444D44DF
:2060A00005EB0109CDF808900C96009E089D4FEAB60CCDF800C00A9E8BEA0408754088EAD4
:2060C0000506019DDDF8108085EA0C0585EA08054FEAF67605EBF965DDF80C803544454460
:2060E00005EB010C019D0A964FEAB508CDF80CC0DDF800C00D9E199D89EA080989EA0C09DC
:206100006E40DDF80CC0079D09EBFC6C85EA0E056E40CDF804804FEAF675DDF808900CEBAF
:206120000506DDF810804FEAB9094644CDF8089006EB0108DDF858C00C9ECDF8108086EAB7
:206140000C06DDF820C0DDF8048087EA0C0C86EA0C06DDF80CC04FEAF67E8CEA090C8CEAC5
:20616000080CDDF810800CEBF86C0CEB0E06DDF800C0DDF81C80664406EB010CCDF800C00D
:20618000DDF80CC00A9E4FEABC09DDF854C0CDF80C9086EA0C068AEA080CDDF8108086EA8F
:2061A0000C0688EA0908DDF80890DDF800C088EA090808EBFC6C4FEAF6780CEB0806CDF8F9
:2061C0001C80DDF80480DDF850C0464406EB0108CDF80480DDF8108085EA0C064FEAB80938
:2061E000DDF800C0CDF810908CEA090C5740DDF80C907E408CEA090CDDF804804FEAF677CA
:206200000CEBF86C0CEB0706DDF80890DDF800C04E44069777184FEABC09029788EA090845
:20622000CDF800908EEA0B0683EA0A07DDF810907E4088EA0908029F4FEAF67A08EBF76CAC
:20624000DDF80C900CEB0A064E44DDF8048006EB010C4FEAB8060196DDF81C800D9E624091
:2062600088EA0608DDE90167DDF80090774087EA090788EA020807EBFC664FEAF872029FBF
:20628000179232444FEAB708069F0C9EDDF8109077404A44199E0A445E407740019E8CEA6F
:2062A0000803734003EBF2664FEAF773109333444FEABC0603960A9EDDF800908AEA0607FB
:2062C000169E4B4466407740039E0B4482EA060484EA080404EBF3664FEAF7740F94344437
:2062E000019E4FEAB20734440C440194DDF854C0199C179A8CEA040C6A4082EA0C0283EA4A
:20630000070C039E019C8CEA060C0CEBF4664FEAF27432194244199456184FEAB30902963B
:20632000109BDDF850C0169A019C83EA0E038CEA020C83EA0C0384EA09047C404FEAF3722D
:2063400004EBF66416922244019CDDF81C804FEAB40CCDF804C00F9C039EDDF854C084EAB3
:20636000080432448BEA0C08DDE901C60A4484EA080486EA0C0686EA09064FEAF47406EB2A
:20638000F26323443B445E180496029E15944FEAB6070297069F199CDDF850C07C400D9E34
:2063A000029F86EA0C06744082EA0703DDF804C0049E83EA0C0303EBF6664FEAF473149348
:2063C00033444FEAB204169A0C9E82EA0A0286EA0B067240049E029F4B4466400B447E40CD
:2063E0004FEAF27206EBF3660E92324462445618049A179F4FEAB208159ADDF834C07A4013
:206400000A9F87EA0C077A4083EA080767404FEAF27207EBF66717440D92029A3A4402EB85
:20642000010B4FEAB3070097149A109986EA07034A400C9983EA080369404A4003EBFB61D1
:206440004FEAF27211440C920A19FE490A9C5318DDE90E214A408EEA04014A404FEAB609B3
:20646000009F8BEA0901794001EBF3614FEAF274214401EB0802F3490A9454180D9A19996C
:206480004FEABB064A400799009F69404A4043EA060503EA060105EA090529434FEAF275D1
:2064A00001EBF4612944CA19E749099555184FEAB307169B0C9A44EA070C5A40069B0CEA54
:2064C000060C83EA0E035A4004EA070343EA0C034FEAF27203EBF56308921A444FEAB40C8A
:2064E0000A9C159BDDF81C805C408AEA08035C4045EA0C084A4405EA0C0308EA07080A4400
:2065000043EA08034FEAF47403EBF2632344334407945C184FEAB509099D149B069E5D40E5
:20652000179B4FEAB20B73405D4042EA090602EA090306EA0C06334303EBF4664FEAF573CF
:20654000F5180E9E089A3D447240109E44EA0B0786EA0A06724004EA0B0607EA09073E430C
:206560000D444FEAF27206EBF56605923244624456184FEAB407079C0D9ADDF85CC05440FD
:206580000F9A82EA0C02544045EA070C05EA07020CEA0B0C42EA0C0202EBF66C4FEAF472D5
:2065A000179262444A4402EB010C0C9A4FEAB50983EA0204109D199A6A40544046EA090518
:2065C00006EA09023D402A434FEAF47E02EBFC6272445A4402EB01080A9C059A0F9D624003
:2065E000169C4FEAB60B6C4062404CEA0B050CEA0B0405EA09052C434FEAF27204EBF86402
:206600000F9222443A445418099D179A199E6A40159D4FEABC07754082EA050C48EA0705B3
:2066200008EA070205EA0B052A434FEAFC7A02EBF46505EB0A024A445518089A4FEAB80C68
:20664000CDF864A08EEA0208169E149A8AEA030A724088EA020844EA0C0604EA0C023E4024
:2066600032434FEAF87602EBF56232445A44169656184FEAB40B079C0F9ADDF854806240FD
:206680000E9C84EA0804624045EA0B0405EA0B0804EA0C0448EA040808EBF6644FEAF279C7
:2066A00004EB09023A445418149F0D9A4FEAB5057A408AEA020A46EA050706EA050207EA4B
:2066C0000B073A43CDF8549002EBF4674FEAFA7214923A44624457184FEAB608169E059A12
:2066E000DDF838C056400C9ADDF8549082EA0C02564044EA080204EA080C2A404CEA020CE0
:206700004FEAF6760CEBF76232445A440E965618179A4FEAB40A89EA02090A9C0D9ADFF814
:2067200028B1544089EA040947EA0A0407EA0A0204EA080422434FEAF97402EBF662224480
:206740002A4455180D940C9C099A1499624081EA0E0181EA020C4FEAB70746EA070206EA10
:20676000070102EA0A0211434FEAFC7C01EBF56202EB0C0101EB08024FEAB604DDE90E61B9
:20678000CDF830C04E40DDF828C008995A4481EA0C014E4045EA040C05EA04010CEA070C78
:2067A00041EA0C014FEAF67601EBF2610A960E44564406EB0B01DDF864C00D9EDDF8248017
:2067C00086EA0C06DDF81CC04FEAB5058CEA080C86EA0C0642EA050802EA050C08EA040853
:2067E0004CEA080C4FEAF6760CEBF16C099666444FEAB209DDF830C0169A37448CEA020CA5
:20680000089A41EA09065A408CEA020C07EB0B0801EA09022E40324302EBF8664FEAFC72AE
:206820001644264406EB0B04159F0A9EDDF81CC07E40059F4FEAB10187EA0C0786EA070A35
:2068400004E00000A1EBD96EDCBC1B8F48EA010C08EA01070CEA090C47EA0C0707EBF46C65
:206860004FEAFA770CEB07062E4406EB0B0A099E149D4FEAB80C6E40179D4FEAB4085D40A9
:206880006E4044EA0C0504EA0C030D402B4303EBFA654FEAF6731D4405EB0906B3440E9C63
:2068A000059E54408EEA06056C408AEA080585EA0C0505EBFB654FEAF47425440D44FF497E
:2068C000CDF8088005EB01080D9ECDF8008087EA0605DDF85C800F9E4FEABA0A86EA08062D
:2068E0007540DDF808808BEA0A0686EA0806DDF800804FEAF57506EBF8662E44664406EB2F
:20690000010CCDF804C0DDF830C04FEABB0983EA0C06DDF864C088EA09088CEA0E0C86EA24
